{
  "_format": "hh-sol-artifact-1",
  "contractName": "HackXCore",
  "sourceName": "contracts/HackXCore.sol",
  "abi": [
    {
      "inputs": [],
      "stateMutability": "nonpayable",
      "type": "constructor"
    },
    {
      "inputs": [
        {
          "internalType": "address",
          "name": "owner",
          "type": "address"
        }
      ],
      "name": "OwnableInvalidOwner",
      "type": "error"
    },
    {
      "inputs": [
        {
          "internalType": "address",
          "name": "account",
          "type": "address"
        }
      ],
      "name": "OwnableUnauthorizedAccount",
      "type": "error"
    },
    {
      "anonymous": false,
      "inputs": [
        {
          "indexed": true,
          "internalType": "uint256",
          "name": "hackathonId",
          "type": "uint256"
        },
        {
          "indexed": true,
          "internalType": "address",
          "name": "organizer",
          "type": "address"
        },
        {
          "indexed": false,
          "internalType": "string",
          "name": "dataCID",
          "type": "string"
        }
      ],
      "name": "HackathonCreated",
      "type": "event"
    },
    {
      "anonymous": false,
      "inputs": [
        {
          "indexed": true,
          "internalType": "uint256",
          "name": "hackathonId",
          "type": "uint256"
        },
        {
          "indexed": false,
          "internalType": "string",
          "name": "newDataCID",
          "type": "string"
        }
      ],
      "name": "HackathonUpdated",
      "type": "event"
    },
    {
      "anonymous": false,
      "inputs": [
        {
          "indexed": true,
          "internalType": "address",
          "name": "previousOwner",
          "type": "address"
        },
        {
          "indexed": true,
          "internalType": "address",
          "name": "newOwner",
          "type": "address"
        }
      ],
      "name": "OwnershipTransferred",
      "type": "event"
    },
    {
      "anonymous": false,
      "inputs": [
        {
          "indexed": true,
          "internalType": "address",
          "name": "user",
          "type": "address"
        },
        {
          "indexed": false,
          "internalType": "string",
          "name": "newProfileCID",
          "type": "string"
        }
      ],
      "name": "ProfileUpdated",
      "type": "event"
    },
    {
      "anonymous": false,
      "inputs": [
        {
          "indexed": true,
          "internalType": "uint256",
          "name": "hackathonId",
          "type": "uint256"
        },
        {
          "indexed": true,
          "internalType": "address",
          "name": "participant",
          "type": "address"
        },
        {
          "indexed": false,
          "internalType": "string",
          "name": "projectCID",
          "type": "string"
        }
      ],
      "name": "ProjectSubmitted",
      "type": "event"
    },
    {
      "anonymous": false,
      "inputs": [
        {
          "indexed": true,
          "internalType": "uint256",
          "name": "projectId",
          "type": "uint256"
        },
        {
          "indexed": false,
          "internalType": "string",
          "name": "newDataCID",
          "type": "string"
        }
      ],
      "name": "ProjectUpdated",
      "type": "event"
    },
    {
      "anonymous": false,
      "inputs": [
        {
          "indexed": true,
          "internalType": "uint256",
          "name": "projectId",
          "type": "uint256"
        },
        {
          "indexed": true,
          "internalType": "address",
          "name": "judge",
          "type": "address"
        },
        {
          "indexed": false,
          "internalType": "uint256",
          "name": "score",
          "type": "uint256"
        }
      ],
      "name": "ScoreSubmitted",
      "type": "event"
    },
    {
      "anonymous": false,
      "inputs": [
        {
          "indexed": true,
          "internalType": "uint256",
          "name": "hackathonId",
          "type": "uint256"
        },
        {
          "indexed": true,
          "internalType": "address",
          "name": "participant",
          "type": "address"
        }
      ],
      "name": "UserJoinedHackathon",
      "type": "event"
    },
    {
      "anonymous": false,
      "inputs": [
        {
          "indexed": true,
          "internalType": "uint256",
          "name": "hackathonId",
          "type": "uint256"
        },
        {
          "indexed": true,
          "internalType": "address",
          "name": "participant",
          "type": "address"
        }
      ],
      "name": "UserLeftHackathon",
      "type": "event"
    },
    {
      "anonymous": false,
      "inputs": [
        {
          "indexed": true,
          "internalType": "address",
          "name": "user",
          "type": "address"
        },
        {
          "indexed": false,
          "internalType": "string",
          "name": "profileCID",
          "type": "string"
        }
      ],
      "name": "UserRegistered",
      "type": "event"
    },
    {
      "inputs": [
        {
          "internalType": "string",
          "name": "hackathonDataCID",
          "type": "string"
        }
      ],
      "name": "createHackathon",
      "outputs": [
        {
          "internalType": "uint256",
          "name": "",
          "type": "uint256"
        }
      ],
      "stateMutability": "nonpayable",
      "type": "function"
    },
    {
      "inputs": [],
      "name": "getHackathonCount",
      "outputs": [
        {
          "internalType": "uint256",
          "name": "",
          "type": "uint256"
        }
      ],
      "stateMutability": "view",
      "type": "function"
    },
    {
      "inputs": [
        {
          "internalType": "uint256",
          "name": "hackathonId",
          "type": "uint256"
        }
      ],
      "name": "getHackathonData",
      "outputs": [
        {
          "internalType": "string",
          "name": "",
          "type": "string"
        }
      ],
      "stateMutability": "view",
      "type": "function"
    },
    {
      "inputs": [
        {
          "internalType": "uint256",
          "name": "hackathonId",
          "type": "uint256"
        }
      ],
      "name": "getHackathonParticipants",
      "outputs": [
        {
          "internalType": "address[]",
          "name": "",
          "type": "address[]"
        }
      ],
      "stateMutability": "view",
      "type": "function"
    },
    {
      "inputs": [],
      "name": "getProjectCount",
      "outputs": [
        {
          "internalType": "uint256",
          "name": "",
          "type": "uint256"
        }
      ],
      "stateMutability": "view",
      "type": "function"
    },
    {
      "inputs": [
        {
          "internalType": "uint256",
          "name": "projectId",
          "type": "uint256"
        }
      ],
      "name": "getProjectData",
      "outputs": [
        {
          "internalType": "string",
          "name": "",
          "type": "string"
        }
      ],
      "stateMutability": "view",
      "type": "function"
    },
    {
      "inputs": [
        {
          "internalType": "uint256",
          "name": "projectId",
          "type": "uint256"
        },
        {
          "internalType": "address",
          "name": "judge",
          "type": "address"
        }
      ],
      "name": "getProjectScore",
      "outputs": [
        {
          "internalType": "uint256",
          "name": "",
          "type": "uint256"
        }
      ],
      "stateMutability": "view",
      "type": "function"
    },
    {
      "inputs": [
        {
          "internalType": "uint256",
          "name": "hackathonId",
          "type": "uint256"
        },
        {
          "internalType": "address",
          "name": "participant",
          "type": "address"
        }
      ],
      "name": "getProjectSubmission",
      "outputs": [
        {
          "internalType": "string",
          "name": "",
          "type": "string"
        }
      ],
      "stateMutability": "view",
      "type": "function"
    },
    {
      "inputs": [
        {
          "internalType": "address",
          "name": "user",
          "type": "address"
        }
      ],
      "name": "getUserHackathons",
      "outputs": [
        {
          "internalType": "uint256[]",
          "name": "",
          "type": "uint256[]"
        }
      ],
      "stateMutability": "view",
      "type": "function"
    },
    {
      "inputs": [
        {
          "internalType": "address",
          "name": "user",
          "type": "address"
        }
      ],
      "name": "getUserProfile",
      "outputs": [
        {
          "internalType": "string",
          "name": "",
          "type": "string"
        }
      ],
      "stateMutability": "view",
      "type": "function"
    },
    {
      "inputs": [
        {
          "internalType": "uint256",
          "name": "",
          "type": "uint256"
        }
      ],
      "name": "hackathonData",
      "outputs": [
        {
          "internalType": "string",
          "name": "",
          "type": "string"
        }
      ],
      "stateMutability": "view",
      "type": "function"
    },
    {
      "inputs": [
        {
          "internalType": "uint256",
          "name": "",
          "type": "uint256"
        }
      ],
      "name": "hackathonOrganizers",
      "outputs": [
        {
          "internalType": "address",
          "name": "",
          "type": "address"
        }
      ],
      "stateMutability": "view",
      "type": "function"
    },
    {
      "inputs": [
        {
          "internalType": "uint256",
          "name": "",
          "type": "uint256"
        },
        {
          "internalType": "uint256",
          "name": "",
          "type": "uint256"
        }
      ],
      "name": "hackathonParticipants",
      "outputs": [
        {
          "internalType": "address",
          "name": "",
          "type": "address"
        }
      ],
      "stateMutability": "view",
      "type": "function"
    },
    {
      "inputs": [
        {
          "internalType": "address",
          "name": "",
          "type": "address"
        }
      ],
      "name": "isUserRegistered",
      "outputs": [
        {
          "internalType": "bool",
          "name": "",
          "type": "bool"
        }
      ],
      "stateMutability": "view",
      "type": "function"
    },
    {
      "inputs": [
        {
          "internalType": "uint256",
          "name": "hackathonId",
          "type": "uint256"
        }
      ],
      "name": "joinHackathon",
      "outputs": [],
      "stateMutability": "nonpayable",
      "type": "function"
    },
    {
      "inputs": [
        {
          "internalType": "uint256",
          "name": "hackathonId",
          "type": "uint256"
        }
      ],
      "name": "leaveHackathon",
      "outputs": [],
      "stateMutability": "nonpayable",
      "type": "function"
    },
    {
      "inputs": [],
      "name": "owner",
      "outputs": [
        {
          "internalType": "address",
          "name": "",
          "type": "address"
        }
      ],
      "stateMutability": "view",
      "type": "function"
    },
    {
      "inputs": [
        {
          "internalType": "uint256",
          "name": "",
          "type": "uint256"
        }
      ],
      "name": "projectCreators",
      "outputs": [
        {
          "internalType": "address",
          "name": "",
          "type": "address"
        }
      ],
      "stateMutability": "view",
      "type": "function"
    },
    {
      "inputs": [
        {
          "internalType": "uint256",
          "name": "",
          "type": "uint256"
        }
      ],
      "name": "projectData",
      "outputs": [
        {
          "internalType": "string",
          "name": "",
          "type": "string"
        }
      ],
      "stateMutability": "view",
      "type": "function"
    },
    {
      "inputs": [
        {
          "internalType": "uint256",
          "name": "",
          "type": "uint256"
        },
        {
          "internalType": "uint256",
          "name": "",
          "type": "uint256"
        }
      ],
      "name": "projectJudges",
      "outputs": [
        {
          "internalType": "address",
          "name": "",
          "type": "address"
        }
      ],
      "stateMutability": "view",
      "type": "function"
    },
    {
      "inputs": [
        {
          "internalType": "uint256",
          "name": "",
          "type": "uint256"
        },
        {
          "internalType": "address",
          "name": "",
          "type": "address"
        }
      ],
      "name": "projectScores",
      "outputs": [
        {
          "internalType": "uint256",
          "name": "",
          "type": "uint256"
        }
      ],
      "stateMutability": "view",
      "type": "function"
    },
    {
      "inputs": [
        {
          "internalType": "uint256",
          "name": "",
          "type": "uint256"
        },
        {
          "internalType": "address",
          "name": "",
          "type": "address"
        }
      ],
      "name": "projectSubmissions",
      "outputs": [
        {
          "internalType": "string",
          "name": "",
          "type": "string"
        }
      ],
      "stateMutability": "view",
      "type": "function"
    },
    {
      "inputs": [
        {
          "internalType": "string",
          "name": "profileCID",
          "type": "string"
        }
      ],
      "name": "registerUser",
      "outputs": [],
      "stateMutability": "nonpayable",
      "type": "function"
    },
    {
      "inputs": [],
      "name": "renounceOwnership",
      "outputs": [],
      "stateMutability": "nonpayable",
      "type": "function"
    },
    {
      "inputs": [
        {
          "internalType": "uint256",
          "name": "hackathonId",
          "type": "uint256"
        },
        {
          "internalType": "string",
          "name": "projectCID",
          "type": "string"
        }
      ],
      "name": "submitProject",
      "outputs": [
        {
          "internalType": "uint256",
          "name": "",
          "type": "uint256"
        }
      ],
      "stateMutability": "nonpayable",
      "type": "function"
    },
    {
      "inputs": [
        {
          "internalType": "uint256",
          "name": "projectId",
          "type": "uint256"
        },
        {
          "internalType": "address",
          "name": "judge",
          "type": "address"
        },
        {
          "internalType": "uint256",
          "name": "score",
          "type": "uint256"
        }
      ],
      "name": "submitScore",
      "outputs": [],
      "stateMutability": "nonpayable",
      "type": "function"
    },
    {
      "inputs": [
        {
          "internalType": "address",
          "name": "newOwner",
          "type": "address"
        }
      ],
      "name": "transferOwnership",
      "outputs": [],
      "stateMutability": "nonpayable",
      "type": "function"
    },
    {
      "inputs": [
        {
          "internalType": "uint256",
          "name": "hackathonId",
          "type": "uint256"
        },
        {
          "internalType": "string",
          "name": "newDataCID",
          "type": "string"
        }
      ],
      "name": "updateHackathon",
      "outputs": [],
      "stateMutability": "nonpayable",
      "type": "function"
    },
    {
      "inputs": [
        {
          "internalType": "uint256",
          "name": "projectId",
          "type": "uint256"
        },
        {
          "internalType": "string",
          "name": "newDataCID",
          "type": "string"
        }
      ],
      "name": "updateProject",
      "outputs": [],
      "stateMutability": "nonpayable",
      "type": "function"
    },
    {
      "inputs": [
        {
          "internalType": "string",
          "name": "newProfileCID",
          "type": "string"
        }
      ],
      "name": "updateUserProfile",
      "outputs": [],
      "stateMutability": "nonpayable",
      "type": "function"
    },
    {
      "inputs": [
        {
          "internalType": "address",
          "name": "",
          "type": "address"
        },
        {
          "internalType": "uint256",
          "name": "",
          "type": "uint256"
        }
      ],
      "name": "userHackathons",
      "outputs": [
        {
          "internalType": "uint256",
          "name": "",
          "type": "uint256"
        }
      ],
      "stateMutability": "view",
      "type": "function"
    },
    {
      "inputs": [
        {
          "internalType": "address",
          "name": "",
          "type": "address"
        }
      ],
      "name": "userProfiles",
      "outputs": [
        {
          "internalType": "string",
          "name": "",
          "type": "string"
        }
      ],
      "stateMutability": "view",
      "type": "function"
    }
  ],
  "bytecode": "0x60806040526000600155600060025534801561001a57600080fd5b50338061004157604051631e4fbdf760e01b81526000600482015260240160405180910390fd5b61004a81610050565b506100a0565b600080546001600160a01b038381166001600160a01b0319831681178455604051919092169283917f8be0079c531659141344cd1fd0a4f28419497f9722a3daafe3b4186f6b6457e09190a35050565b611bca806100af6000396000f3fe608060405234801561001057600080fd5b50600436106101f05760003560e01c8063789e5c1b1161010f578063bbc3a7f3116100a2578063e1acebb111610071578063e1acebb114610495578063f2fde38b146104a8578063f63ef2a7146104bb578063f73c9c95146104e457600080fd5b8063bbc3a7f31461043c578063c82eff821461044f578063da7bafce14610462578063df9febe11461046a57600080fd5b806397b913db116100de57806397b913db146103c0578063987ee156146103e0578063aa0e1ee3146103f3578063ae86ffdb1461042957600080fd5b8063789e5c1b1461037657806383c4eb9f146103895780638903f70c1461039c5780638da5cb5b146103af57600080fd5b80633a14db841161018757806358f36c131161015657806358f36c1314610335578063701053d014610348578063704f1b941461035b578063715018a61461036e57600080fd5b80633a14db84146102e75780633bcff3b01461030757806342ca6d581461030f5780635145470c1461032257600080fd5b806321cfe3c4116101c357806321cfe3c41461029957806329d8e857146102ac5780633163f04e146102c1578063332d56d7146102d457600080fd5b80630848fab3146101f55780630afdb3d714610225578063163f752214610246578063177652c714610279575b600080fd5b61020861020336600461163e565b61050d565b6040516001600160a01b0390911681526020015b60405180910390f35b610238610233366004611677565b610545565b60405190815260200161021c565b6102696102543660046116a1565b600d6020526000908152604090205460ff1681565b604051901515815260200161021c565b61028c6102873660046116c3565b610576565b60405161021c91906116dc565b6102086102a736600461163e565b610618565b6102bf6102ba36600461172a565b610634565b005b6102386102cf366004611802565b610781565b61028c6102e23660046116a1565b610866565b6102fa6102f53660046116a1565b610900565b60405161021c919061183f565b600254610238565b6102bf61031d3660046116c3565b61096b565b61028c610330366004611883565b610af4565b61028c6103433660046116c3565b610b18565b6102bf6103563660046118af565b610b35565b6102bf610369366004611802565b610c51565b6102bf610d71565b61028c6103843660046116c3565b610d85565b61028c610397366004611883565b610d9e565b61028c6103aa3660046116c3565b610e56565b6000546001600160a01b0316610208565b6103d36103ce3660046116c3565b610e6f565b60405161021c91906118f6565b61028c6103ee3660046116a1565b610eda565b610238610401366004611883565b6000918252600b602090815260408084206001600160a01b0393909316845291905290205490565b6102bf610437366004611802565b610f01565b6102bf61044a3660046118af565b610fd4565b61023861045d3660046118af565b611131565b600154610238565b610238610478366004611883565b600b60209081526000928352604080842090915290825290205481565b6102bf6104a33660046116c3565b6112a9565b6102bf6104b63660046116a1565b611583565b6102086104c93660046116c3565b600a602052600090815260409020546001600160a01b031681565b6102086104f23660046116c3565b6009602052600090815260409020546001600160a01b031681565b600c602052816000526040600020818154811061052957600080fd5b6000918252602090912001546001600160a01b03169150829050565b6008602052816000526040600020818154811061056157600080fd5b90600052602060002001600091509150505481565b600081815260046020526040902080546060919061059390611937565b80601f01602080910402602001604051908101604052809291908181526020018280546105bf90611937565b801561060c5780601f106105e15761010080835404028352916020019161060c565b820191906000526020600020905b8154815290600101906020018083116105ef57829003601f168201915b50505050509050919050565b6007602052816000526040600020818154811061052957600080fd5b336000908152600d602052604090205460ff1661066c5760405162461bcd60e51b815260040161066390611971565b60405180910390fd5b600083815260056020526040812080548592919061068990611937565b9050116106d15760405162461bcd60e51b8152602060048201526016602482015275141c9bda9958dd08191bd95cc81b9bdd08195e1a5cdd60521b6044820152606401610663565b60648211156107225760405162461bcd60e51b815260206004820152601f60248201527f53636f7265206d757374206265206265747765656e203020616e6420313030006044820152606401610663565b6000848152600b602090815260408083206001600160a01b038716808552908352928190208590555184815286917ffdeaad9f62c24dd107d87ba2c0b144114dec62d178cad522394390f1d233a62c910160405180910390a350505050565b336000908152600d602052604081205460ff166107b05760405162461bcd60e51b815260040161066390611971565b60008251116107d15760405162461bcd60e51b81526004016106639061199e565b600180549060006107e1836119f6565b909155505060015460008181526004602052604090206108018482611a5e565b506000818152600960205260409081902080546001600160a01b03191633908117909155905182907f01b0740cdf91daa7bd45db01c0d487f583678bc711b9edaf4389b86d27296721906108569087906116dc565b60405180910390a390505b919050565b6003602052600090815260409020805461087f90611937565b80601f01602080910402602001604051908101604052809291908181526020018280546108ab90611937565b80156108f85780601f106108cd576101008083540402835291602001916108f8565b820191906000526020600020905b8154815290600101906020018083116108db57829003601f168201915b505050505081565b6001600160a01b03811660009081526008602090815260409182902080548351818402810184019094528084526060939283018282801561060c57602002820191906000526020600020905b81548152602001906001019080831161094c5750505050509050919050565b336000908152600d602052604090205460ff1661099a5760405162461bcd60e51b815260040161066390611971565b60008181526004602052604081208054839291906109b790611937565b9050116109d65760405162461bcd60e51b815260040161066390611b1e565b6000828152600760205260408120905b8154811015610a7757336001600160a01b0316828281548110610a0b57610a0b611b55565b6000918252602090912001546001600160a01b031603610a655760405162461bcd60e51b8152602060048201526015602482015274416c72656164792070617274696369706174696e6760581b6044820152606401610663565b80610a6f816119f6565b9150506109e6565b5060008381526007602090815260408083208054600181810183559185528385200180546001600160a01b03191633908117909155808552600884528285208054928301815585529284200186905551909185917f0bc2d74ab3ee3ffbf929844b7d2ad59227552c2afe4345daff9e7f990c09e7b09190a3505050565b60066020908152600092835260408084209091529082529020805461087f90611937565b600081815260056020526040902080546060919061059390611937565b6000828152600460205260408120805484929190610b5290611937565b905011610b715760405162461bcd60e51b815260040161066390611b1e565b60008381526009602052604090205483906001600160a01b03163314610bd95760405162461bcd60e51b815260206004820152601760248201527f4e6f74206861636b6174686f6e206f7267616e697a65720000000000000000006044820152606401610663565b6000835111610bfa5760405162461bcd60e51b81526004016106639061199e565b6000848152600460205260409020610c128482611a5e565b50837ff2b94249c2c3ab9cba6c7235477eaf77fc5f664b2041a83035735e4b6ff2eb4984604051610c4391906116dc565b60405180910390a250505050565b336000908152600d602052604090205460ff1615610cb15760405162461bcd60e51b815260206004820152601760248201527f5573657220616c726561647920726567697374657265640000000000000000006044820152606401610663565b6000815111610d025760405162461bcd60e51b815260206004820152601b60248201527f50726f66696c65204349442063616e6e6f7420626520656d70747900000000006044820152606401610663565b336000908152600360205260409020610d1b8282611a5e565b50336000818152600d602052604090819020805460ff19166001179055517f48cac28ad4dc618e15f4c2dd5e97751182f166de97b25618318b2112aa951a2f90610d669084906116dc565b60405180910390a250565b610d796115c1565b610d8360006115ee565b565b6004602052600090815260409020805461087f90611937565b60008281526006602090815260408083206001600160a01b03851684529091529020805460609190610dcf90611937565b80601f0160208091040260200160405190810160405280929190818152602001828054610dfb90611937565b8015610e485780601f10610e1d57610100808354040283529160200191610e48565b820191906000526020600020905b815481529060010190602001808311610e2b57829003601f168201915b505050505090505b92915050565b6005602052600090815260409020805461087f90611937565b60008181526007602090815260409182902080548351818402810184019094528084526060939283018282801561060c57602002820191906000526020600020905b81546001600160a01b03168152600190910190602001808311610eb15750505050509050919050565b6001600160a01b038116600090815260036020526040902080546060919061059390611937565b336000908152600d602052604090205460ff16610f305760405162461bcd60e51b815260040161066390611971565b6000815111610f815760405162461bcd60e51b815260206004820152601b60248201527f50726f66696c65204349442063616e6e6f7420626520656d70747900000000006044820152606401610663565b336000908152600360205260409020610f9a8282611a5e565b50336001600160a01b03167fdd635a4cd84864e37e4479dbfc2ec667acfa473c83c8422a8ac9d9d07599b01c82604051610d6691906116dc565b6000828152600a602052604090205482906001600160a01b031633146110325760405162461bcd60e51b81526020600482015260136024820152722737ba10383937b532b1ba1031b932b0ba37b960691b6044820152606401610663565b600083815260056020526040812080548592919061104f90611937565b9050116110975760405162461bcd60e51b8152602060048201526016602482015275141c9bda9958dd08191bd95cc81b9bdd08195e1a5cdd60521b6044820152606401610663565b60008351116110e85760405162461bcd60e51b815260206004820181905260248201527f50726f6a6563742064617461204349442063616e6e6f7420626520656d7074796044820152606401610663565b60008481526005602052604090206111008482611a5e565b50837fd59ff490e419b5a72d916db4f77bc918cb64099584e8605b5a5aa543eacc0c0784604051610c4391906116dc565b336000908152600d602052604081205460ff166111605760405162461bcd60e51b815260040161066390611971565b600083815260046020526040812080548592919061117d90611937565b90501161119c5760405162461bcd60e51b815260040161066390611b1e565b60008351116111ed5760405162461bcd60e51b815260206004820152601b60248201527f50726f6a656374204349442063616e6e6f7420626520656d70747900000000006044820152606401610663565b600280549060006111fd836119f6565b9091555050600254600081815260056020526040902061121d8582611a5e565b506000818152600a6020908152604080832080546001600160a01b0319163390811790915588845260068352818420908452909152902061125e8582611a5e565b50336001600160a01b0316857f55da7e5e16004f5167a21b509f0d75bc212d7aa3f01efa5536d3aeaae0c849b38660405161129991906116dc565b60405180910390a3949350505050565b336000908152600d602052604090205460ff166112d85760405162461bcd60e51b815260040161066390611971565b60008181526004602052604081208054839291906112f590611937565b9050116113145760405162461bcd60e51b815260040161066390611b1e565b600082815260076020526040812090805b825481101561142f57336001600160a01b031683828154811061134a5761134a611b55565b6000918252602090912001546001600160a01b03160361141d578254839061137490600190611b6b565b8154811061138457611384611b55565b9060005260206000200160009054906101000a90046001600160a01b03168382815481106113b4576113b4611b55565b9060005260206000200160006101000a8154816001600160a01b0302191690836001600160a01b03160217905550828054806113f2576113f2611b7e565b600082815260209020810160001990810180546001600160a01b03191690550190556001915061142f565b80611427816119f6565b915050611325565b50806114895760405162461bcd60e51b815260206004820152602360248201527f4e6f742070617274696369706174696e6720696e2074686973206861636b61746044820152623437b760e91b6064820152608401610663565b336000908152600860205260408120905b815481101561154e57858282815481106114b6576114b6611b55565b90600052602060002001540361153c57815482906114d690600190611b6b565b815481106114e6576114e6611b55565b906000526020600020015482828154811061150357611503611b55565b90600052602060002001819055508180548061152157611521611b7e565b6001900381819060005260206000200160009055905561154e565b80611546816119f6565b91505061149a565b50604051339086907f2ab18cddb249e24c5332095fe22be86066dc3da498125b46a0b88febdcfe74b490600090a35050505050565b61158b6115c1565b6001600160a01b0381166115b557604051631e4fbdf760e01b815260006004820152602401610663565b6115be816115ee565b50565b6000546001600160a01b03163314610d835760405163118cdaa760e01b8152336004820152602401610663565b600080546001600160a01b038381166001600160a01b0319831681178455604051919092169283917f8be0079c531659141344cd1fd0a4f28419497f9722a3daafe3b4186f6b6457e09190a35050565b6000806040838503121561165157600080fd5b50508035926020909101359150565b80356001600160a01b038116811461086157600080fd5b6000806040838503121561168a57600080fd5b61169383611660565b946020939093013593505050565b6000602082840312156116b357600080fd5b6116bc82611660565b9392505050565b6000602082840312156116d557600080fd5b5035919050565b600060208083528351808285015260005b81811015611709578581018301518582016040015282016116ed565b506000604082860101526040601f19601f8301168501019250505092915050565b60008060006060848603121561173f57600080fd5b8335925061174f60208501611660565b9150604084013590509250925092565b634e487b7160e01b600052604160045260246000fd5b600082601f83011261178657600080fd5b813567ffffffffffffffff808211156117a1576117a161175f565b604051601f8301601f19908116603f011681019082821181831017156117c9576117c961175f565b816040528381528660208588010111156117e257600080fd5b836020870160208301376000602085830101528094505050505092915050565b60006020828403121561181457600080fd5b813567ffffffffffffffff81111561182b57600080fd5b61183784828501611775565b949350505050565b6020808252825182820181905260009190848201906040850190845b818110156118775783518352928401929184019160010161185b565b50909695505050505050565b6000806040838503121561189657600080fd5b823591506118a660208401611660565b90509250929050565b600080604083850312156118c257600080fd5b82359150602083013567ffffffffffffffff8111156118e057600080fd5b6118ec85828601611775565b9150509250929050565b6020808252825182820181905260009190848201906040850190845b818110156118775783516001600160a01b031683529284019291840191600101611912565b600181811c9082168061194b57607f821691505b60208210810361196b57634e487b7160e01b600052602260045260246000fd5b50919050565b602080825260139082015272155cd95c881b9bdd081c9959da5cdd195c9959606a1b604082015260600190565b60208082526022908201527f4861636b6174686f6e2064617461204349442063616e6e6f7420626520656d70604082015261747960f01b606082015260800190565b634e487b7160e01b600052601160045260246000fd5b600060018201611a0857611a086119e0565b5060010190565b601f821115611a5957600081815260208120601f850160051c81016020861015611a365750805b601f850160051c820191505b81811015611a5557828155600101611a42565b5050505b505050565b815167ffffffffffffffff811115611a7857611a7861175f565b611a8c81611a868454611937565b84611a0f565b602080601f831160018114611ac15760008415611aa95750858301515b600019600386901b1c1916600185901b178555611a55565b600085815260208120601f198616915b82811015611af057888601518255948401946001909101908401611ad1565b5085821015611b0e5787850151600019600388901b60f8161c191681555b5050505050600190811b01905550565b60208082526018908201527f4861636b6174686f6e20646f6573206e6f742065786973740000000000000000604082015260600190565b634e487b7160e01b600052603260045260246000fd5b81810381811115610e5057610e506119e0565b634e487b7160e01b600052603160045260246000fdfea26469706673582212209adf2556639b23b1ef4335ebc465ac903c728eb4165e099f37788b9179d1cdf564736f6c63430008140033",
  "linkReferences": {},
  "deployedLinkReferences": {}
}